{
  "_format": "hh-sol-artifact-1",
  "contractName": "ERC20Token",
  "sourceName": "contracts/TokenMinter.sol",
  "abi": [
    {
      "inputs": [
        {
          "internalType": "string",
          "name": "name",
          "type": "string"
        },
        {
          "internalType": "string",
          "name": "symbol",
          "type": "string"
        },
        {
          "internalType": "address",
          "name": "owner",
          "type": "address"
        },
        {
          "internalType": "uint256",
          "name": "supply",
          "type": "uint256"
        }
      ],
      "stateMutability": "nonpayable",
      "type": "constructor"
    },
    {
      "anonymous": false,
      "inputs": [
        {
          "indexed": true,
          "internalType": "address",
          "name": "owner",
          "type": "address"
        },
        {
          "indexed": true,
          "internalType": "address",
          "name": "spender",
          "type": "address"
        },
        {
          "indexed": false,
          "internalType": "uint256",
          "name": "value",
          "type": "uint256"
        }
      ],
      "name": "Approval",
      "type": "event"
    },
    {
      "anonymous": false,
      "inputs": [
        {
          "indexed": true,
          "internalType": "address",
          "name": "from",
          "type": "address"
        },
        {
          "indexed": true,
          "internalType": "address",
          "name": "to",
          "type": "address"
        },
        {
          "indexed": false,
          "internalType": "uint256",
          "name": "value",
          "type": "uint256"
        }
      ],
      "name": "Transfer",
      "type": "event"
    },
    {
      "inputs": [
        {
          "internalType": "address",
          "name": "owner",
          "type": "address"
        },
        {
          "internalType": "address",
          "name": "spender",
          "type": "address"
        }
      ],
      "name": "allowance",
      "outputs": [
        {
          "internalType": "uint256",
          "name": "",
          "type": "uint256"
        }
      ],
      "stateMutability": "view",
      "type": "function"
    },
    {
      "inputs": [
        {
          "internalType": "address",
          "name": "spender",
          "type": "address"
        },
        {
          "internalType": "uint256",
          "name": "amount",
          "type": "uint256"
        }
      ],
      "name": "approve",
      "outputs": [
        {
          "internalType": "bool",
          "name": "",
          "type": "bool"
        }
      ],
      "stateMutability": "nonpayable",
      "type": "function"
    },
    {
      "inputs": [
        {
          "internalType": "address",
          "name": "account",
          "type": "address"
        }
      ],
      "name": "balanceOf",
      "outputs": [
        {
          "internalType": "uint256",
          "name": "",
          "type": "uint256"
        }
      ],
      "stateMutability": "view",
      "type": "function"
    },
    {
      "inputs": [],
      "name": "decimals",
      "outputs": [
        {
          "internalType": "uint8",
          "name": "",
          "type": "uint8"
        }
      ],
      "stateMutability": "view",
      "type": "function"
    },
    {
      "inputs": [
        {
          "internalType": "address",
          "name": "spender",
          "type": "address"
        },
        {
          "internalType": "uint256",
          "name": "subtractedValue",
          "type": "uint256"
        }
      ],
      "name": "decreaseAllowance",
      "outputs": [
        {
          "internalType": "bool",
          "name": "",
          "type": "bool"
        }
      ],
      "stateMutability": "nonpayable",
      "type": "function"
    },
    {
      "inputs": [],
      "name": "description",
      "outputs": [
        {
          "internalType": "string",
          "name": "",
          "type": "string"
        }
      ],
      "stateMutability": "view",
      "type": "function"
    },
    {
      "inputs": [],
      "name": "imageUrl",
      "outputs": [
        {
          "internalType": "string",
          "name": "",
          "type": "string"
        }
      ],
      "stateMutability": "view",
      "type": "function"
    },
    {
      "inputs": [
        {
          "internalType": "address",
          "name": "spender",
          "type": "address"
        },
        {
          "internalType": "uint256",
          "name": "addedValue",
          "type": "uint256"
        }
      ],
      "name": "increaseAllowance",
      "outputs": [
        {
          "internalType": "bool",
          "name": "",
          "type": "bool"
        }
      ],
      "stateMutability": "nonpayable",
      "type": "function"
    },
    {
      "inputs": [],
      "name": "name",
      "outputs": [
        {
          "internalType": "string",
          "name": "",
          "type": "string"
        }
      ],
      "stateMutability": "view",
      "type": "function"
    },
    {
      "inputs": [],
      "name": "symbol",
      "outputs": [
        {
          "internalType": "string",
          "name": "",
          "type": "string"
        }
      ],
      "stateMutability": "view",
      "type": "function"
    },
    {
      "inputs": [],
      "name": "totalSupply",
      "outputs": [
        {
          "internalType": "uint256",
          "name": "",
          "type": "uint256"
        }
      ],
      "stateMutability": "view",
      "type": "function"
    },
    {
      "inputs": [
        {
          "internalType": "address",
          "name": "to",
          "type": "address"
        },
        {
          "internalType": "uint256",
          "name": "amount",
          "type": "uint256"
        }
      ],
      "name": "transfer",
      "outputs": [
        {
          "internalType": "bool",
          "name": "",
          "type": "bool"
        }
      ],
      "stateMutability": "nonpayable",
      "type": "function"
    },
    {
      "inputs": [
        {
          "internalType": "address",
          "name": "from",
          "type": "address"
        },
        {
          "internalType": "address",
          "name": "to",
          "type": "address"
        },
        {
          "internalType": "uint256",
          "name": "amount",
          "type": "uint256"
        }
      ],
      "name": "transferFrom",
      "outputs": [
        {
          "internalType": "bool",
          "name": "",
          "type": "bool"
        }
      ],
      "stateMutability": "nonpayable",
      "type": "function"
    }
  ],
  "bytecode": "0x60806040523480156200001157600080fd5b5060405162001f6d38038062001f6d8339818101604052810190620000379190620004c0565b838381600390816200004a9190620007b1565b5080600490816200005c9190620007b1565b5050506040518060400160405280601c81526020017f54686973206973206120637573746f6d20455243323020746f6b656e0000000081525060059081620000a59190620007b1565b506040518060200160405280600081525060069081620000c69190620007b1565b506200010382620000dc6200010d60201b60201c565b600a620000ea919062000a28565b83620000f7919062000a79565b6200011660201b60201c565b5050505062000bb0565b60006012905090565b600073ffffffffffffffffffffffffffffffffffffffff168273ffffffffffffffffffffffffffffffffffffffff160362000188576040517f08c379a00000000000000000000000000000000000000000000000000000000081526004016200017f9062000b25565b60405180910390fd5b6200019c600083836200028360201b60201c565b8060026000828254620001b0919062000b47565b92505081905550806000808473ffffffffffffffffffffffffffffffffffffffff1673ffffffffffffffffffffffffffffffffffffffff168152602001908152602001600020600082825401925050819055508173ffffffffffffffffffffffffffffffffffffffff16600073ffffffffffffffffffffffffffffffffffffffff167fddf252ad1be2c89b69c2b068fc378daa952ba7f163c4a11628f55a4df523b3ef8360405162000263919062000b93565b60405180910390a36200027f600083836200028860201b60201c565b5050565b505050565b505050565b6000604051905090565b600080fd5b600080fd5b600080fd5b600080fd5b6000601f19601f8301169050919050565b7f4e487b7100000000000000000000000000000000000000000000000000000000600052604160045260246000fd5b620002f682620002ab565b810181811067ffffffffffffffff82111715620003185762000317620002bc565b5b80604052505050565b60006200032d6200028d565b90506200033b8282620002eb565b919050565b600067ffffffffffffffff8211156200035e576200035d620002bc565b5b6200036982620002ab565b9050602081019050919050565b60005b838110156200039657808201518184015260208101905062000379565b60008484015250505050565b6000620003b9620003b38462000340565b62000321565b905082815260208101848484011115620003d857620003d7620002a6565b5b620003e584828562000376565b509392505050565b600082601f830112620004055762000404620002a1565b5b815162000417848260208601620003a2565b91505092915050565b600073ffffffffffffffffffffffffffffffffffffffff82169050919050565b60006200044d8262000420565b9050919050565b6200045f8162000440565b81146200046b57600080fd5b50565b6000815190506200047f8162000454565b92915050565b6000819050919050565b6200049a8162000485565b8114620004a657600080fd5b50565b600081519050620004ba816200048f565b92915050565b60008060008060808587031215620004dd57620004dc62000297565b5b600085015167ffffffffffffffff811115620004fe57620004fd6200029c565b5b6200050c87828801620003ed565b945050602085015167ffffffffffffffff81111562000530576200052f6200029c565b5b6200053e87828801620003ed565b935050604062000551878288016200046e565b92505060606200056487828801620004a9565b91505092959194509250565b600081519050919050565b7f4e487b7100000000000000000000000000000000000000000000000000000000600052602260045260246000fd5b60006002820490506001821680620005c357607f821691505b602082108103620005d957620005d86200057b565b5b50919050565b60008190508160005260206000209050919050565b60006020601f8301049050919050565b600082821b905092915050565b600060088302620006437fffffffffffffffffffffffffffffffffffffffffffffffffffffffffffffffff8262000604565b6200064f868362000604565b95508019841693508086168417925050509392505050565b6000819050919050565b6000620006926200068c620006868462000485565b62000667565b62000485565b9050919050565b6000819050919050565b620006ae8362000671565b620006c6620006bd8262000699565b84845462000611565b825550505050565b600090565b620006dd620006ce565b620006ea818484620006a3565b505050565b5b81811015620007125762000706600082620006d3565b600181019050620006f0565b5050565b601f82111562000761576200072b81620005df565b6200073684620005f4565b8101602085101562000746578190505b6200075e6200075585620005f4565b830182620006ef565b50505b505050565b600082821c905092915050565b6000620007866000198460080262000766565b1980831691505092915050565b6000620007a1838362000773565b9150826002028217905092915050565b620007bc8262000570565b67ffffffffffffffff811115620007d857620007d7620002bc565b5b620007e48254620005aa565b620007f182828562000716565b600060209050601f83116001811462000829576000841562000814578287015190505b62000820858262000793565b86555062000890565b601f1984166200083986620005df565b60005b8281101562000863578489015182556001820191506020850194506020810190506200083c565b868310156200088357848901516200087f601f89168262000773565b8355505b6001600288020188555050505b505050505050565b7f4e487b7100000000000000000000000000000000000000000000000000000000600052601160045260246000fd5b60008160011c9050919050565b6000808291508390505b60018511156200092657808604811115620008fe57620008fd62000898565b5b60018516156200090e5780820291505b80810290506200091e85620008c7565b9450620008de565b94509492505050565b60008262000941576001905062000a14565b8162000951576000905062000a14565b81600181146200096a57600281146200097557620009ab565b600191505062000a14565b60ff8411156200098a576200098962000898565b5b8360020a915084821115620009a457620009a362000898565b5b5062000a14565b5060208310610133831016604e8410600b8410161715620009e55782820a905083811115620009df57620009de62000898565b5b62000a14565b620009f48484846001620008d4565b9250905081840481111562000a0e5762000a0d62000898565b5b81810290505b9392505050565b600060ff82169050919050565b600062000a358262000485565b915062000a428362000a1b565b925062000a717fffffffffffffffffffffffffffffffffffffffffffffffffffffffffffffffff84846200092f565b905092915050565b600062000a868262000485565b915062000a938362000485565b925082820262000aa38162000485565b9150828204841483151762000abd5762000abc62000898565b5b5092915050565b600082825260208201905092915050565b7f45524332303a206d696e7420746f20746865207a65726f206164647265737300600082015250565b600062000b0d601f8362000ac4565b915062000b1a8262000ad5565b602082019050919050565b6000602082019050818103600083015262000b408162000afe565b9050919050565b600062000b548262000485565b915062000b618362000485565b925082820190508082111562000b7c5762000b7b62000898565b5b92915050565b62000b8d8162000485565b82525050565b600060208201905062000baa600083018462000b82565b92915050565b6113ad8062000bc06000396000f3fe608060405234801561001057600080fd5b50600436106100cf5760003560e01c806370a082311161008c578063a457c2d711610066578063a457c2d71461022a578063a9059cbb1461025a578063aba831501461028a578063dd62ed3e146102a8576100cf565b806370a08231146101be5780637284e416146101ee57806395d89b411461020c576100cf565b806306fdde03146100d4578063095ea7b3146100f257806318160ddd1461012257806323b872dd14610140578063313ce56714610170578063395093511461018e575b600080fd5b6100dc6102d8565b6040516100e99190610c8a565b60405180910390f35b61010c60048036038101906101079190610d45565b61036a565b6040516101199190610da0565b60405180910390f35b61012a61038d565b6040516101379190610dca565b60405180910390f35b61015a60048036038101906101559190610de5565b610397565b6040516101679190610da0565b60405180910390f35b6101786103c6565b6040516101859190610e54565b60405180910390f35b6101a860048036038101906101a39190610d45565b6103cf565b6040516101b59190610da0565b60405180910390f35b6101d860048036038101906101d39190610e6f565b610406565b6040516101e59190610dca565b60405180910390f35b6101f661044e565b6040516102039190610c8a565b60405180910390f35b6102146104dc565b6040516102219190610c8a565b60405180910390f35b610244600480360381019061023f9190610d45565b61056e565b6040516102519190610da0565b60405180910390f35b610274600480360381019061026f9190610d45565b6105e5565b6040516102819190610da0565b60405180910390f35b610292610608565b60405161029f9190610c8a565b60405180910390f35b6102c260048036038101906102bd9190610e9c565b610696565b6040516102cf9190610dca565b60405180910390f35b6060600380546102e790610f0b565b80601f016020809104026020016040519081016040528092919081815260200182805461031390610f0b565b80156103605780601f1061033557610100808354040283529160200191610360565b820191906000526020600020905b81548152906001019060200180831161034357829003601f168201915b5050505050905090565b60008061037561071d565b9050610382818585610725565b600191505092915050565b6000600254905090565b6000806103a261071d565b90506103af8582856108ee565b6103ba85858561097a565b60019150509392505050565b60006012905090565b6000806103da61071d565b90506103fb8185856103ec8589610696565b6103f69190610f6b565b610725565b600191505092915050565b60008060008373ffffffffffffffffffffffffffffffffffffffff1673ffffffffffffffffffffffffffffffffffffffff168152602001908152602001600020549050919050565b6005805461045b90610f0b565b80601f016020809104026020016040519081016040528092919081815260200182805461048790610f0b565b80156104d45780601f106104a9576101008083540402835291602001916104d4565b820191906000526020600020905b8154815290600101906020018083116104b757829003601f168201915b505050505081565b6060600480546104eb90610f0b565b80601f016020809104026020016040519081016040528092919081815260200182805461051790610f0b565b80156105645780601f1061053957610100808354040283529160200191610564565b820191906000526020600020905b81548152906001019060200180831161054757829003601f168201915b5050505050905090565b60008061057961071d565b905060006105878286610696565b9050838110156105cc576040517f08c379a00000000000000000000000000000000000000000000000000000000081526004016105c390611011565b60405180910390fd5b6105d98286868403610725565b60019250505092915050565b6000806105f061071d565b90506105fd81858561097a565b600191505092915050565b6006805461061590610f0b565b80601f016020809104026020016040519081016040528092919081815260200182805461064190610f0b565b801561068e5780601f106106635761010080835404028352916020019161068e565b820191906000526020600020905b81548152906001019060200180831161067157829003601f168201915b505050505081565b6000600160008473ffffffffffffffffffffffffffffffffffffffff1673ffffffffffffffffffffffffffffffffffffffff16815260200190815260200160002060008373ffffffffffffffffffffffffffffffffffffffff1673ffffffffffffffffffffffffffffffffffffffff16815260200190815260200160002054905092915050565b600033905090565b600073ffffffffffffffffffffffffffffffffffffffff168373ffffffffffffffffffffffffffffffffffffffff1603610794576040517f08c379a000000000000000000000000000000000000000000000000000000000815260040161078b906110a3565b60405180910390fd5b600073ffffffffffffffffffffffffffffffffffffffff168273ffffffffffffffffffffffffffffffffffffffff1603610803576040517f08c379a00000000000000000000000000000000000000000000000000000000081526004016107fa90611135565b60405180910390fd5b80600160008573ffffffffffffffffffffffffffffffffffffffff1673ffffffffffffffffffffffffffffffffffffffff16815260200190815260200160002060008473ffffffffffffffffffffffffffffffffffffffff1673ffffffffffffffffffffffffffffffffffffffff168152602001908152602001600020819055508173ffffffffffffffffffffffffffffffffffffffff168373ffffffffffffffffffffffffffffffffffffffff167f8c5be1e5ebec7d5bd14f71427d1e84f3dd0314c0f7b2291e5b200ac8c7c3b925836040516108e19190610dca565b60405180910390a3505050565b60006108fa8484610696565b90507fffffffffffffffffffffffffffffffffffffffffffffffffffffffffffffffff81146109745781811015610966576040517f08c379a000000000000000000000000000000000000000000000000000000000815260040161095d906111a1565b60405180910390fd5b6109738484848403610725565b5b50505050565b600073ffffffffffffffffffffffffffffffffffffffff168373ffffffffffffffffffffffffffffffffffffffff16036109e9576040517f08c379a00000000000000000000000000000000000000000000000000000000081526004016109e090611233565b60405180910390fd5b600073ffffffffffffffffffffffffffffffffffffffff168273ffffffffffffffffffffffffffffffffffffffff1603610a58576040517f08c379a0000000000000000000000000000000000000000000000000000000008152600401610a4f906112c5565b60405180910390fd5b610a63838383610bf0565b60008060008573ffffffffffffffffffffffffffffffffffffffff1673ffffffffffffffffffffffffffffffffffffffff16815260200190815260200160002054905081811015610ae9576040517f08c379a0000000000000000000000000000000000000000000000000000000008152600401610ae090611357565b60405180910390fd5b8181036000808673ffffffffffffffffffffffffffffffffffffffff1673ffffffffffffffffffffffffffffffffffffffff16815260200190815260200160002081905550816000808573ffffffffffffffffffffffffffffffffffffffff1673ffffffffffffffffffffffffffffffffffffffff168152602001908152602001600020600082825401925050819055508273ffffffffffffffffffffffffffffffffffffffff168473ffffffffffffffffffffffffffffffffffffffff167fddf252ad1be2c89b69c2b068fc378daa952ba7f163c4a11628f55a4df523b3ef84604051610bd79190610dca565b60405180910390a3610bea848484610bf5565b50505050565b505050565b505050565b600081519050919050565b600082825260208201905092915050565b60005b83811015610c34578082015181840152602081019050610c19565b60008484015250505050565b6000601f19601f8301169050919050565b6000610c5c82610bfa565b610c668185610c05565b9350610c76818560208601610c16565b610c7f81610c40565b840191505092915050565b60006020820190508181036000830152610ca48184610c51565b905092915050565b600080fd5b600073ffffffffffffffffffffffffffffffffffffffff82169050919050565b6000610cdc82610cb1565b9050919050565b610cec81610cd1565b8114610cf757600080fd5b50565b600081359050610d0981610ce3565b92915050565b6000819050919050565b610d2281610d0f565b8114610d2d57600080fd5b50565b600081359050610d3f81610d19565b92915050565b60008060408385031215610d5c57610d5b610cac565b5b6000610d6a85828601610cfa565b9250506020610d7b85828601610d30565b9150509250929050565b60008115159050919050565b610d9a81610d85565b82525050565b6000602082019050610db56000830184610d91565b92915050565b610dc481610d0f565b82525050565b6000602082019050610ddf6000830184610dbb565b92915050565b600080600060608486031215610dfe57610dfd610cac565b5b6000610e0c86828701610cfa565b9350506020610e1d86828701610cfa565b9250506040610e2e86828701610d30565b9150509250925092565b600060ff82169050919050565b610e4e81610e38565b82525050565b6000602082019050610e696000830184610e45565b92915050565b600060208284031215610e8557610e84610cac565b5b6000610e9384828501610cfa565b91505092915050565b60008060408385031215610eb357610eb2610cac565b5b6000610ec185828601610cfa565b9250506020610ed285828601610cfa565b9150509250929050565b7f4e487b7100000000000000000000000000000000000000000000000000000000600052602260045260246000fd5b60006002820490506001821680610f2357607f821691505b602082108103610f3657610f35610edc565b5b50919050565b7f4e487b7100000000000000000000000000000000000000000000000000000000600052601160045260246000fd5b6000610f7682610d0f565b9150610f8183610d0f565b9250828201905080821115610f9957610f98610f3c565b5b92915050565b7f45524332303a2064656372656173656420616c6c6f77616e63652062656c6f7760008201527f207a65726f000000000000000000000000000000000000000000000000000000602082015250565b6000610ffb602583610c05565b915061100682610f9f565b604082019050919050565b6000602082019050818103600083015261102a81610fee565b9050919050565b7f45524332303a20617070726f76652066726f6d20746865207a65726f2061646460008201527f7265737300000000000000000000000000000000000000000000000000000000602082015250565b600061108d602483610c05565b915061109882611031565b604082019050919050565b600060208201905081810360008301526110bc81611080565b9050919050565b7f45524332303a20617070726f766520746f20746865207a65726f20616464726560008201527f7373000000000000000000000000000000000000000000000000000000000000602082015250565b600061111f602283610c05565b915061112a826110c3565b604082019050919050565b6000602082019050818103600083015261114e81611112565b9050919050565b7f45524332303a20696e73756666696369656e7420616c6c6f77616e6365000000600082015250565b600061118b601d83610c05565b915061119682611155565b602082019050919050565b600060208201905081810360008301526111ba8161117e565b9050919050565b7f45524332303a207472616e736665722066726f6d20746865207a65726f20616460008201527f6472657373000000000000000000000000000000000000000000000000000000602082015250565b600061121d602583610c05565b9150611228826111c1565b604082019050919050565b6000602082019050818103600083015261124c81611210565b9050919050565b7f45524332303a207472616e7366657220746f20746865207a65726f206164647260008201527f6573730000000000000000000000000000000000000000000000000000000000602082015250565b60006112af602383610c05565b91506112ba82611253565b604082019050919050565b600060208201905081810360008301526112de816112a2565b9050919050565b7f45524332303a207472616e7366657220616d6f756e742065786365656473206260008201527f616c616e63650000000000000000000000000000000000000000000000000000602082015250565b6000611341602683610c05565b915061134c826112e5565b604082019050919050565b6000602082019050818103600083015261137081611334565b905091905056fea264697066735822122014fd68cef5cf668d75ea4c49e21cb855fc0c72fd242a97cb203ca114ea9dd76a64736f6c63430008110033",
  "linkReferences": {},
  "deployedLinkReferences": {}
}