{
  "_format": "hh-sol-artifact-1",
  "contractName": "ERC721Token",
  "sourceName": "contracts/TokenMinter.sol",
  "abi": [
    {
      "inputs": [
        {
          "internalType": "string",
          "name": "name",
          "type": "string"
        },
        {
          "internalType": "string",
          "name": "symbol",
          "type": "string"
        },
        {
          "internalType": "address",
          "name": "owner",
          "type": "address"
        }
      ],
      "stateMutability": "nonpayable",
      "type": "constructor"
    },
    {
      "anonymous": false,
      "inputs": [
        {
          "indexed": true,
          "internalType": "address",
          "name": "owner",
          "type": "address"
        },
        {
          "indexed": true,
          "internalType": "address",
          "name": "approved",
          "type": "address"
        },
        {
          "indexed": true,
          "internalType": "uint256",
          "name": "tokenId",
          "type": "uint256"
        }
      ],
      "name": "Approval",
      "type": "event"
    },
    {
      "anonymous": false,
      "inputs": [
        {
          "indexed": true,
          "internalType": "address",
          "name": "owner",
          "type": "address"
        },
        {
          "indexed": true,
          "internalType": "address",
          "name": "operator",
          "type": "address"
        },
        {
          "indexed": false,
          "internalType": "bool",
          "name": "approved",
          "type": "bool"
        }
      ],
      "name": "ApprovalForAll",
      "type": "event"
    },
    {
      "anonymous": false,
      "inputs": [
        {
          "indexed": true,
          "internalType": "address",
          "name": "from",
          "type": "address"
        },
        {
          "indexed": true,
          "internalType": "address",
          "name": "to",
          "type": "address"
        },
        {
          "indexed": true,
          "internalType": "uint256",
          "name": "tokenId",
          "type": "uint256"
        }
      ],
      "name": "Transfer",
      "type": "event"
    },
    {
      "inputs": [],
      "name": "admin",
      "outputs": [
        {
          "internalType": "address",
          "name": "",
          "type": "address"
        }
      ],
      "stateMutability": "view",
      "type": "function"
    },
    {
      "inputs": [
        {
          "internalType": "address",
          "name": "to",
          "type": "address"
        },
        {
          "internalType": "uint256",
          "name": "tokenId",
          "type": "uint256"
        }
      ],
      "name": "approve",
      "outputs": [],
      "stateMutability": "nonpayable",
      "type": "function"
    },
    {
      "inputs": [
        {
          "internalType": "address",
          "name": "owner",
          "type": "address"
        }
      ],
      "name": "balanceOf",
      "outputs": [
        {
          "internalType": "uint256",
          "name": "",
          "type": "uint256"
        }
      ],
      "stateMutability": "view",
      "type": "function"
    },
    {
      "inputs": [],
      "name": "description",
      "outputs": [
        {
          "internalType": "string",
          "name": "",
          "type": "string"
        }
      ],
      "stateMutability": "view",
      "type": "function"
    },
    {
      "inputs": [
        {
          "internalType": "uint256",
          "name": "tokenId",
          "type": "uint256"
        }
      ],
      "name": "getApproved",
      "outputs": [
        {
          "internalType": "address",
          "name": "",
          "type": "address"
        }
      ],
      "stateMutability": "view",
      "type": "function"
    },
    {
      "inputs": [],
      "name": "imageUrl",
      "outputs": [
        {
          "internalType": "string",
          "name": "",
          "type": "string"
        }
      ],
      "stateMutability": "view",
      "type": "function"
    },
    {
      "inputs": [
        {
          "internalType": "address",
          "name": "owner",
          "type": "address"
        },
        {
          "internalType": "address",
          "name": "operator",
          "type": "address"
        }
      ],
      "name": "isApprovedForAll",
      "outputs": [
        {
          "internalType": "bool",
          "name": "",
          "type": "bool"
        }
      ],
      "stateMutability": "view",
      "type": "function"
    },
    {
      "inputs": [
        {
          "internalType": "address",
          "name": "to",
          "type": "address"
        }
      ],
      "name": "mint",
      "outputs": [],
      "stateMutability": "nonpayable",
      "type": "function"
    },
    {
      "inputs": [],
      "name": "name",
      "outputs": [
        {
          "internalType": "string",
          "name": "",
          "type": "string"
        }
      ],
      "stateMutability": "view",
      "type": "function"
    },
    {
      "inputs": [],
      "name": "nextTokenId",
      "outputs": [
        {
          "internalType": "uint256",
          "name": "",
          "type": "uint256"
        }
      ],
      "stateMutability": "view",
      "type": "function"
    },
    {
      "inputs": [
        {
          "internalType": "uint256",
          "name": "tokenId",
          "type": "uint256"
        }
      ],
      "name": "ownerOf",
      "outputs": [
        {
          "internalType": "address",
          "name": "",
          "type": "address"
        }
      ],
      "stateMutability": "view",
      "type": "function"
    },
    {
      "inputs": [
        {
          "internalType": "address",
          "name": "from",
          "type": "address"
        },
        {
          "internalType": "address",
          "name": "to",
          "type": "address"
        },
        {
          "internalType": "uint256",
          "name": "tokenId",
          "type": "uint256"
        }
      ],
      "name": "safeTransferFrom",
      "outputs": [],
      "stateMutability": "nonpayable",
      "type": "function"
    },
    {
      "inputs": [
        {
          "internalType": "address",
          "name": "from",
          "type": "address"
        },
        {
          "internalType": "address",
          "name": "to",
          "type": "address"
        },
        {
          "internalType": "uint256",
          "name": "tokenId",
          "type": "uint256"
        },
        {
          "internalType": "bytes",
          "name": "data",
          "type": "bytes"
        }
      ],
      "name": "safeTransferFrom",
      "outputs": [],
      "stateMutability": "nonpayable",
      "type": "function"
    },
    {
      "inputs": [
        {
          "internalType": "address",
          "name": "operator",
          "type": "address"
        },
        {
          "internalType": "bool",
          "name": "approved",
          "type": "bool"
        }
      ],
      "name": "setApprovalForAll",
      "outputs": [],
      "stateMutability": "nonpayable",
      "type": "function"
    },
    {
      "inputs": [
        {
          "internalType": "bytes4",
          "name": "interfaceId",
          "type": "bytes4"
        }
      ],
      "name": "supportsInterface",
      "outputs": [
        {
          "internalType": "bool",
          "name": "",
          "type": "bool"
        }
      ],
      "stateMutability": "view",
      "type": "function"
    },
    {
      "inputs": [],
      "name": "symbol",
      "outputs": [
        {
          "internalType": "string",
          "name": "",
          "type": "string"
        }
      ],
      "stateMutability": "view",
      "type": "function"
    },
    {
      "inputs": [
        {
          "internalType": "uint256",
          "name": "tokenId",
          "type": "uint256"
        }
      ],
      "name": "tokenURI",
      "outputs": [
        {
          "internalType": "string",
          "name": "",
          "type": "string"
        }
      ],
      "stateMutability": "view",
      "type": "function"
    },
    {
      "inputs": [
        {
          "internalType": "address",
          "name": "from",
          "type": "address"
        },
        {
          "internalType": "address",
          "name": "to",
          "type": "address"
        },
        {
          "internalType": "uint256",
          "name": "tokenId",
          "type": "uint256"
        }
      ],
      "name": "transferFrom",
      "outputs": [],
      "stateMutability": "nonpayable",
      "type": "function"
    }
  ],
  "bytecode": "0x60806040523480156200001157600080fd5b5060405162002ec838038062002ec88339818101604052810190620000379190620002a1565b828281600090816200004a919062000586565b5080600190816200005c919062000586565b50505080600760006101000a81548173ffffffffffffffffffffffffffffffffffffffff021916908373ffffffffffffffffffffffffffffffffffffffff1602179055505050506200066d565b6000604051905090565b600080fd5b600080fd5b600080fd5b600080fd5b6000601f19601f8301169050919050565b7f4e487b7100000000000000000000000000000000000000000000000000000000600052604160045260246000fd5b6200011282620000c7565b810181811067ffffffffffffffff82111715620001345762000133620000d8565b5b80604052505050565b600062000149620000a9565b905062000157828262000107565b919050565b600067ffffffffffffffff8211156200017a5762000179620000d8565b5b6200018582620000c7565b9050602081019050919050565b60005b83811015620001b257808201518184015260208101905062000195565b60008484015250505050565b6000620001d5620001cf846200015c565b6200013d565b905082815260208101848484011115620001f457620001f3620000c2565b5b6200020184828562000192565b509392505050565b600082601f830112620002215762000220620000bd565b5b815162000233848260208601620001be565b91505092915050565b600073ffffffffffffffffffffffffffffffffffffffff82169050919050565b600062000269826200023c565b9050919050565b6200027b816200025c565b81146200028757600080fd5b50565b6000815190506200029b8162000270565b92915050565b600080600060608486031215620002bd57620002bc620000b3565b5b600084015167ffffffffffffffff811115620002de57620002dd620000b8565b5b620002ec8682870162000209565b935050602084015167ffffffffffffffff81111562000310576200030f620000b8565b5b6200031e8682870162000209565b925050604062000331868287016200028a565b9150509250925092565b600081519050919050565b7f4e487b7100000000000000000000000000000000000000000000000000000000600052602260045260246000fd5b600060028204905060018216806200038e57607f821691505b602082108103620003a457620003a362000346565b5b50919050565b60008190508160005260206000209050919050565b60006020601f8301049050919050565b600082821b905092915050565b6000600883026200040e7fffffffffffffffffffffffffffffffffffffffffffffffffffffffffffffffff82620003cf565b6200041a8683620003cf565b95508019841693508086168417925050509392505050565b6000819050919050565b6000819050919050565b600062000467620004616200045b8462000432565b6200043c565b62000432565b9050919050565b6000819050919050565b620004838362000446565b6200049b62000492826200046e565b848454620003dc565b825550505050565b600090565b620004b2620004a3565b620004bf81848462000478565b505050565b5b81811015620004e757620004db600082620004a8565b600181019050620004c5565b5050565b601f82111562000536576200050081620003aa565b6200050b84620003bf565b810160208510156200051b578190505b620005336200052a85620003bf565b830182620004c4565b50505b505050565b600082821c905092915050565b60006200055b600019846008026200053b565b1980831691505092915050565b600062000576838362000548565b9150826002028217905092915050565b62000591826200033b565b67ffffffffffffffff811115620005ad57620005ac620000d8565b5b620005b9825462000375565b620005c6828285620004eb565b600060209050601f831160018114620005fe5760008415620005e9578287015190505b620005f5858262000568565b86555062000665565b601f1984166200060e86620003aa565b60005b82811015620006385784890151825560018201915060208501945060208101905062000611565b8683101562000658578489015162000654601f89168262000548565b8355505b6001600288020188555050505b505050505050565b61284b806200067d6000396000f3fe608060405234801561001057600080fd5b50600436106101165760003560e01c80637284e416116100a2578063aba8315011610071578063aba83150146102df578063b88d4fde146102fd578063c87b56dd14610319578063e985e9c514610349578063f851a4401461037957610116565b80637284e4161461026957806375794a3c1461028757806395d89b41146102a5578063a22cb465146102c357610116565b806323b872dd116100e957806323b872dd146101b557806342842e0e146101d15780636352211e146101ed5780636a6278421461021d57806370a082311461023957610116565b806301ffc9a71461011b57806306fdde031461014b578063081812fc14610169578063095ea7b314610199575b600080fd5b61013560048036038101906101309190611a64565b610397565b6040516101429190611aac565b60405180910390f35b610153610479565b6040516101609190611b57565b60405180910390f35b610183600480360381019061017e9190611baf565b61050b565b6040516101909190611c1d565b60405180910390f35b6101b360048036038101906101ae9190611c64565b610551565b005b6101cf60048036038101906101ca9190611ca4565b610668565b005b6101eb60048036038101906101e69190611ca4565b6106c8565b005b61020760048036038101906102029190611baf565b6106e8565b6040516102149190611c1d565b60405180910390f35b61023760048036038101906102329190611cf7565b61076e565b005b610253600480360381019061024e9190611cf7565b610825565b6040516102609190611d33565b60405180910390f35b6102716108dc565b60405161027e9190611b57565b60405180910390f35b61028f61096a565b60405161029c9190611d33565b60405180910390f35b6102ad610970565b6040516102ba9190611b57565b60405180910390f35b6102dd60048036038101906102d89190611d7a565b610a02565b005b6102e7610a18565b6040516102f49190611b57565b60405180910390f35b61031760048036038101906103129190611eef565b610aa6565b005b610333600480360381019061032e9190611baf565b610b08565b6040516103409190611b57565b60405180910390f35b610363600480360381019061035e9190611f72565b610b70565b6040516103709190611aac565b60405180910390f35b610381610c04565b60405161038e9190611c1d565b60405180910390f35b60007f80ac58cd000000000000000000000000000000000000000000000000000000007bffffffffffffffffffffffffffffffffffffffffffffffffffffffff1916827bffffffffffffffffffffffffffffffffffffffffffffffffffffffff1916148061046257507f5b5e139f000000000000000000000000000000000000000000000000000000007bffffffffffffffffffffffffffffffffffffffffffffffffffffffff1916827bffffffffffffffffffffffffffffffffffffffffffffffffffffffff1916145b80610472575061047182610c2a565b5b9050919050565b60606000805461048890611fe1565b80601f01602080910402602001604051908101604052809291908181526020018280546104b490611fe1565b80156105015780601f106104d657610100808354040283529160200191610501565b820191906000526020600020905b8154815290600101906020018083116104e457829003601f168201915b5050505050905090565b600061051682610c94565b6004600083815260200190815260200160002060009054906101000a900473ffffffffffffffffffffffffffffffffffffffff169050919050565b600061055c826106e8565b90508073ffffffffffffffffffffffffffffffffffffffff168373ffffffffffffffffffffffffffffffffffffffff16036105cc576040517f08c379a00000000000000000000000000000000000000000000000000000000081526004016105c390612084565b60405180910390fd5b8073ffffffffffffffffffffffffffffffffffffffff166105eb610cdf565b73ffffffffffffffffffffffffffffffffffffffff16148061061a575061061981610614610cdf565b610b70565b5b610659576040517f08c379a000000000000000000000000000000000000000000000000000000000815260040161065090612116565b60405180910390fd5b6106638383610ce7565b505050565b610679610673610cdf565b82610da0565b6106b8576040517f08c379a00000000000000000000000000000000000000000000000000000000081526004016106af906121a8565b60405180910390fd5b6106c3838383610e35565b505050565b6106e383838360405180602001604052806000815250610aa6565b505050565b6000806106f48361112e565b9050600073ffffffffffffffffffffffffffffffffffffffff168173ffffffffffffffffffffffffffffffffffffffff1603610765576040517f08c379a000000000000000000000000000000000000000000000000000000000815260040161075c90612214565b60405180910390fd5b80915050919050565b600760009054906101000a900473ffffffffffffffffffffffffffffffffffffffff1673ffffffffffffffffffffffffffffffffffffffff163373ffffffffffffffffffffffffffffffffffffffff16146107fe576040517f08c379a00000000000000000000000000000000000000000000000000000000081526004016107f590612280565b60405180910390fd5b61080a8160065461116b565b6006600081548092919061081d906122cf565b919050555050565b60008073ffffffffffffffffffffffffffffffffffffffff168273ffffffffffffffffffffffffffffffffffffffff1603610895576040517f08c379a000000000000000000000000000000000000000000000000000000000815260040161088c90612389565b60405180910390fd5b600360008373ffffffffffffffffffffffffffffffffffffffff1673ffffffffffffffffffffffffffffffffffffffff168152602001908152602001600020549050919050565b600880546108e990611fe1565b80601f016020809104026020016040519081016040528092919081815260200182805461091590611fe1565b80156109625780601f1061093757610100808354040283529160200191610962565b820191906000526020600020905b81548152906001019060200180831161094557829003601f168201915b505050505081565b60065481565b60606001805461097f90611fe1565b80601f01602080910402602001604051908101604052809291908181526020018280546109ab90611fe1565b80156109f85780601f106109cd576101008083540402835291602001916109f8565b820191906000526020600020905b8154815290600101906020018083116109db57829003601f168201915b5050505050905090565b610a14610a0d610cdf565b8383611189565b5050565b60098054610a2590611fe1565b80601f0160208091040260200160405190810160405280929190818152602001828054610a5190611fe1565b8015610a9e5780601f10610a7357610100808354040283529160200191610a9e565b820191906000526020600020905b815481529060010190602001808311610a8157829003601f168201915b505050505081565b610ab7610ab1610cdf565b83610da0565b610af6576040517f08c379a0000000000000000000000000000000000000000000000000000000008152600401610aed906121a8565b60405180910390fd5b610b02848484846112f5565b50505050565b6060610b1382610c94565b6000610b1d611351565b90506000815111610b3d5760405180602001604052806000815250610b68565b80610b4784611368565b604051602001610b589291906123e5565b6040516020818303038152906040525b915050919050565b6000600560008473ffffffffffffffffffffffffffffffffffffffff1673ffffffffffffffffffffffffffffffffffffffff16815260200190815260200160002060008373ffffffffffffffffffffffffffffffffffffffff1673ffffffffffffffffffffffffffffffffffffffff16815260200190815260200160002060009054906101000a900460ff16905092915050565b600760009054906101000a900473ffffffffffffffffffffffffffffffffffffffff1681565b60007f01ffc9a7000000000000000000000000000000000000000000000000000000007bffffffffffffffffffffffffffffffffffffffffffffffffffffffff1916827bffffffffffffffffffffffffffffffffffffffffffffffffffffffff1916149050919050565b610c9d81611436565b610cdc576040517f08c379a0000000000000000000000000000000000000000000000000000000008152600401610cd390612214565b60405180910390fd5b50565b600033905090565b816004600083815260200190815260200160002060006101000a81548173ffffffffffffffffffffffffffffffffffffffff021916908373ffffffffffffffffffffffffffffffffffffffff160217905550808273ffffffffffffffffffffffffffffffffffffffff16610d5a836106e8565b73ffffffffffffffffffffffffffffffffffffffff167f8c5be1e5ebec7d5bd14f71427d1e84f3dd0314c0f7b2291e5b200ac8c7c3b92560405160405180910390a45050565b600080610dac836106e8565b90508073ffffffffffffffffffffffffffffffffffffffff168473ffffffffffffffffffffffffffffffffffffffff161480610dee5750610ded8185610b70565b5b80610e2c57508373ffffffffffffffffffffffffffffffffffffffff16610e148461050b565b73ffffffffffffffffffffffffffffffffffffffff16145b91505092915050565b8273ffffffffffffffffffffffffffffffffffffffff16610e55826106e8565b73ffffffffffffffffffffffffffffffffffffffff1614610eab576040517f08c379a0000000000000000000000000000000000000000000000000000000008152600401610ea29061247b565b60405180910390fd5b600073ffffffffffffffffffffffffffffffffffffffff168273ffffffffffffffffffffffffffffffffffffffff1603610f1a576040517f08c379a0000000000000000000000000000000000000000000000000000000008152600401610f119061250d565b60405180910390fd5b610f278383836001611477565b8273ffffffffffffffffffffffffffffffffffffffff16610f47826106e8565b73ffffffffffffffffffffffffffffffffffffffff1614610f9d576040517f08c379a0000000000000000000000000000000000000000000000000000000008152600401610f949061247b565b60405180910390fd5b6004600082815260200190815260200160002060006101000a81549073ffffffffffffffffffffffffffffffffffffffff02191690556001600360008573ffffffffffffffffffffffffffffffffffffffff1673ffffffffffffffffffffffffffffffffffffffff168152602001908152602001600020600082825403925050819055506001600360008473ffffffffffffffffffffffffffffffffffffffff1673ffffffffffffffffffffffffffffffffffffffff16815260200190815260200160002060008282540192505081905550816002600083815260200190815260200160002060006101000a81548173ffffffffffffffffffffffffffffffffffffffff021916908373ffffffffffffffffffffffffffffffffffffffff160217905550808273ffffffffffffffffffffffffffffffffffffffff168473ffffffffffffffffffffffffffffffffffffffff167fddf252ad1be2c89b69c2b068fc378daa952ba7f163c4a11628f55a4df523b3ef60405160405180910390a4611129838383600161147d565b505050565b60006002600083815260200190815260200160002060009054906101000a900473ffffffffffffffffffffffffffffffffffffffff169050919050565b611185828260405180602001604052806000815250611483565b5050565b8173ffffffffffffffffffffffffffffffffffffffff168373ffffffffffffffffffffffffffffffffffffffff16036111f7576040517f08c379a00000000000000000000000000000000000000000000000000000000081526004016111ee90612579565b60405180910390fd5b80600560008573ffffffffffffffffffffffffffffffffffffffff1673ffffffffffffffffffffffffffffffffffffffff16815260200190815260200160002060008473ffffffffffffffffffffffffffffffffffffffff1673ffffffffffffffffffffffffffffffffffffffff16815260200190815260200160002060006101000a81548160ff0219169083151502179055508173ffffffffffffffffffffffffffffffffffffffff168373ffffffffffffffffffffffffffffffffffffffff167f17307eab39ab6107e8899845ad3d59bd9653f200f220920489ca2b5937696c31836040516112e89190611aac565b60405180910390a3505050565b611300848484610e35565b61130c848484846114de565b61134b576040517f08c379a00000000000000000000000000000000000000000000000000000000081526004016113429061260b565b60405180910390fd5b50505050565b606060405180602001604052806000815250905090565b60606000600161137784611665565b01905060008167ffffffffffffffff81111561139657611395611dc4565b5b6040519080825280601f01601f1916602001820160405280156113c85781602001600182028036833780820191505090505b509050600082602001820190505b60011561142b578080600190039150507f3031323334353637383961626364656600000000000000000000000000000000600a86061a8153600a858161141f5761141e61262b565b5b049450600085036113d6575b819350505050919050565b60008073ffffffffffffffffffffffffffffffffffffffff166114588361112e565b73ffffffffffffffffffffffffffffffffffffffff1614159050919050565b50505050565b50505050565b61148d83836117b8565b61149a60008484846114de565b6114d9576040517f08c379a00000000000000000000000000000000000000000000000000000000081526004016114d09061260b565b60405180910390fd5b505050565b60006114ff8473ffffffffffffffffffffffffffffffffffffffff166119d5565b15611658578373ffffffffffffffffffffffffffffffffffffffff1663150b7a02611528610cdf565b8786866040518563ffffffff1660e01b815260040161154a94939291906126af565b6020604051808303816000875af192505050801561158657506040513d601f19601f820116820180604052508101906115839190612710565b60015b611608573d80600081146115b6576040519150601f19603f3d011682016040523d82523d6000602084013e6115bb565b606091505b506000815103611600576040517f08c379a00000000000000000000000000000000000000000000000000000000081526004016115f79061260b565b60405180910390fd5b805181602001fd5b63150b7a0260e01b7bffffffffffffffffffffffffffffffffffffffffffffffffffffffff1916817bffffffffffffffffffffffffffffffffffffffffffffffffffffffff19161491505061165d565b600190505b949350505050565b600080600090507a184f03e93ff9f4daa797ed6e38ed64bf6a1f01000000000000000083106116c3577a184f03e93ff9f4daa797ed6e38ed64bf6a1f01000000000000000083816116b9576116b861262b565b5b0492506040810190505b6d04ee2d6d415b85acef81000000008310611700576d04ee2d6d415b85acef810000000083816116f6576116f561262b565b5b0492506020810190505b662386f26fc10000831061172f57662386f26fc1000083816117255761172461262b565b5b0492506010810190505b6305f5e1008310611758576305f5e100838161174e5761174d61262b565b5b0492506008810190505b612710831061177d5761271083816117735761177261262b565b5b0492506004810190505b606483106117a057606483816117965761179561262b565b5b0492506002810190505b600a83106117af576001810190505b80915050919050565b600073ffffffffffffffffffffffffffffffffffffffff168273ffffffffffffffffffffffffffffffffffffffff1603611827576040517f08c379a000000000000000000000000000000000000000000000000000000000815260040161181e90612789565b60405180910390fd5b61183081611436565b15611870576040517f08c379a0000000000000000000000000000000000000000000000000000000008152600401611867906127f5565b60405180910390fd5b61187e600083836001611477565b61188781611436565b156118c7576040517f08c379a00000000000000000000000000000000000000000000000000000000081526004016118be906127f5565b60405180910390fd5b6001600360008473ffffffffffffffffffffffffffffffffffffffff1673ffffffffffffffffffffffffffffffffffffffff16815260200190815260200160002060008282540192505081905550816002600083815260200190815260200160002060006101000a81548173ffffffffffffffffffffffffffffffffffffffff021916908373ffffffffffffffffffffffffffffffffffffffff160217905550808273ffffffffffffffffffffffffffffffffffffffff16600073ffffffffffffffffffffffffffffffffffffffff167fddf252ad1be2c89b69c2b068fc378daa952ba7f163c4a11628f55a4df523b3ef60405160405180910390a46119d160008383600161147d565b5050565b6000808273ffffffffffffffffffffffffffffffffffffffff163b119050919050565b6000604051905090565b600080fd5b600080fd5b60007fffffffff0000000000000000000000000000000000000000000000000000000082169050919050565b611a4181611a0c565b8114611a4c57600080fd5b50565b600081359050611a5e81611a38565b92915050565b600060208284031215611a7a57611a79611a02565b5b6000611a8884828501611a4f565b91505092915050565b60008115159050919050565b611aa681611a91565b82525050565b6000602082019050611ac16000830184611a9d565b92915050565b600081519050919050565b600082825260208201905092915050565b60005b83811015611b01578082015181840152602081019050611ae6565b60008484015250505050565b6000601f19601f8301169050919050565b6000611b2982611ac7565b611b338185611ad2565b9350611b43818560208601611ae3565b611b4c81611b0d565b840191505092915050565b60006020820190508181036000830152611b718184611b1e565b905092915050565b6000819050919050565b611b8c81611b79565b8114611b9757600080fd5b50565b600081359050611ba981611b83565b92915050565b600060208284031215611bc557611bc4611a02565b5b6000611bd384828501611b9a565b91505092915050565b600073ffffffffffffffffffffffffffffffffffffffff82169050919050565b6000611c0782611bdc565b9050919050565b611c1781611bfc565b82525050565b6000602082019050611c326000830184611c0e565b92915050565b611c4181611bfc565b8114611c4c57600080fd5b50565b600081359050611c5e81611c38565b92915050565b60008060408385031215611c7b57611c7a611a02565b5b6000611c8985828601611c4f565b9250506020611c9a85828601611b9a565b9150509250929050565b600080600060608486031215611cbd57611cbc611a02565b5b6000611ccb86828701611c4f565b9350506020611cdc86828701611c4f565b9250506040611ced86828701611b9a565b9150509250925092565b600060208284031215611d0d57611d0c611a02565b5b6000611d1b84828501611c4f565b91505092915050565b611d2d81611b79565b82525050565b6000602082019050611d486000830184611d24565b92915050565b611d5781611a91565b8114611d6257600080fd5b50565b600081359050611d7481611d4e565b92915050565b60008060408385031215611d9157611d90611a02565b5b6000611d9f85828601611c4f565b9250506020611db085828601611d65565b9150509250929050565b600080fd5b600080fd5b7f4e487b7100000000000000000000000000000000000000000000000000000000600052604160045260246000fd5b611dfc82611b0d565b810181811067ffffffffffffffff82111715611e1b57611e1a611dc4565b5b80604052505050565b6000611e2e6119f8565b9050611e3a8282611df3565b919050565b600067ffffffffffffffff821115611e5a57611e59611dc4565b5b611e6382611b0d565b9050602081019050919050565b82818337600083830152505050565b6000611e92611e8d84611e3f565b611e24565b905082815260208101848484011115611eae57611ead611dbf565b5b611eb9848285611e70565b509392505050565b600082601f830112611ed657611ed5611dba565b5b8135611ee6848260208601611e7f565b91505092915050565b60008060008060808587031215611f0957611f08611a02565b5b6000611f1787828801611c4f565b9450506020611f2887828801611c4f565b9350506040611f3987828801611b9a565b925050606085013567ffffffffffffffff811115611f5a57611f59611a07565b5b611f6687828801611ec1565b91505092959194509250565b60008060408385031215611f8957611f88611a02565b5b6000611f9785828601611c4f565b9250506020611fa885828601611c4f565b9150509250929050565b7f4e487b7100000000000000000000000000000000000000000000000000000000600052602260045260246000fd5b60006002820490506001821680611ff957607f821691505b60208210810361200c5761200b611fb2565b5b50919050565b7f4552433732313a20617070726f76616c20746f2063757272656e74206f776e6560008201527f7200000000000000000000000000000000000000000000000000000000000000602082015250565b600061206e602183611ad2565b915061207982612012565b604082019050919050565b6000602082019050818103600083015261209d81612061565b9050919050565b7f4552433732313a20617070726f76652063616c6c6572206973206e6f7420746f60008201527f6b656e206f776e6572206f7220617070726f76656420666f7220616c6c000000602082015250565b6000612100603d83611ad2565b915061210b826120a4565b604082019050919050565b6000602082019050818103600083015261212f816120f3565b9050919050565b7f4552433732313a2063616c6c6572206973206e6f7420746f6b656e206f776e6560008201527f72206f7220617070726f76656400000000000000000000000000000000000000602082015250565b6000612192602d83611ad2565b915061219d82612136565b604082019050919050565b600060208201905081810360008301526121c181612185565b9050919050565b7f4552433732313a20696e76616c696420746f6b656e2049440000000000000000600082015250565b60006121fe601883611ad2565b9150612209826121c8565b602082019050919050565b6000602082019050818103600083015261222d816121f1565b9050919050565b7f4f6e6c792061646d696e2063616e206d696e7400000000000000000000000000600082015250565b600061226a601383611ad2565b915061227582612234565b602082019050919050565b600060208201905081810360008301526122998161225d565b9050919050565b7f4e487b7100000000000000000000000000000000000000000000000000000000600052601160045260246000fd5b60006122da82611b79565b91507fffffffffffffffffffffffffffffffffffffffffffffffffffffffffffffffff820361230c5761230b6122a0565b5b600182019050919050565b7f4552433732313a2061646472657373207a65726f206973206e6f74206120766160008201527f6c6964206f776e65720000000000000000000000000000000000000000000000602082015250565b6000612373602983611ad2565b915061237e82612317565b604082019050919050565b600060208201905081810360008301526123a281612366565b9050919050565b600081905092915050565b60006123bf82611ac7565b6123c981856123a9565b93506123d9818560208601611ae3565b80840191505092915050565b60006123f182856123b4565b91506123fd82846123b4565b91508190509392505050565b7f4552433732313a207472616e736665722066726f6d20696e636f72726563742060008201527f6f776e6572000000000000000000000000000000000000000000000000000000602082015250565b6000612465602583611ad2565b915061247082612409565b604082019050919050565b6000602082019050818103600083015261249481612458565b9050919050565b7f4552433732313a207472616e7366657220746f20746865207a65726f2061646460008201527f7265737300000000000000000000000000000000000000000000000000000000602082015250565b60006124f7602483611ad2565b91506125028261249b565b604082019050919050565b60006020820190508181036000830152612526816124ea565b9050919050565b7f4552433732313a20617070726f766520746f2063616c6c657200000000000000600082015250565b6000612563601983611ad2565b915061256e8261252d565b602082019050919050565b6000602082019050818103600083015261259281612556565b9050919050565b7f4552433732313a207472616e7366657220746f206e6f6e20455243373231526560008201527f63656976657220696d706c656d656e7465720000000000000000000000000000602082015250565b60006125f5603283611ad2565b915061260082612599565b604082019050919050565b60006020820190508181036000830152612624816125e8565b9050919050565b7f4e487b7100000000000000000000000000000000000000000000000000000000600052601260045260246000fd5b600081519050919050565b600082825260208201905092915050565b60006126818261265a565b61268b8185612665565b935061269b818560208601611ae3565b6126a481611b0d565b840191505092915050565b60006080820190506126c46000830187611c0e565b6126d16020830186611c0e565b6126de6040830185611d24565b81810360608301526126f08184612676565b905095945050505050565b60008151905061270a81611a38565b92915050565b60006020828403121561272657612725611a02565b5b6000612734848285016126fb565b91505092915050565b7f4552433732313a206d696e7420746f20746865207a65726f2061646472657373600082015250565b6000612773602083611ad2565b915061277e8261273d565b602082019050919050565b600060208201905081810360008301526127a281612766565b9050919050565b7f4552433732313a20746f6b656e20616c7265616479206d696e74656400000000600082015250565b60006127df601c83611ad2565b91506127ea826127a9565b602082019050919050565b6000602082019050818103600083015261280e816127d2565b905091905056fea2646970667358221220144ba34d7e2fc7492be337047abe5816afe3fc15d35de1248d849051963be6fe64736f6c63430008110033",
  "linkReferences": {},
  "deployedLinkReferences": {}
}