{
  "_format": "hh-sol-artifact-1",
  "contractName": "TokenMinter",
  "sourceName": "contracts/TokenMinter.sol",
  "abi": [
    {
      "inputs": [],
      "stateMutability": "nonpayable",
      "type": "constructor"
    },
    {
      "anonymous": false,
      "inputs": [
        {
          "indexed": true,
          "internalType": "address",
          "name": "creator",
          "type": "address"
        },
        {
          "indexed": false,
          "internalType": "address",
          "name": "tokenAddress",
          "type": "address"
        },
        {
          "indexed": false,
          "internalType": "string",
          "name": "name",
          "type": "string"
        },
        {
          "indexed": false,
          "internalType": "string",
          "name": "symbol",
          "type": "string"
        },
        {
          "indexed": false,
          "internalType": "uint256",
          "name": "supply",
          "type": "uint256"
        }
      ],
      "name": "ERC20Created",
      "type": "event"
    },
    {
      "anonymous": false,
      "inputs": [
        {
          "indexed": true,
          "internalType": "address",
          "name": "creator",
          "type": "address"
        },
        {
          "indexed": false,
          "internalType": "address",
          "name": "tokenAddress",
          "type": "address"
        },
        {
          "indexed": false,
          "internalType": "string",
          "name": "name",
          "type": "string"
        },
        {
          "indexed": false,
          "internalType": "string",
          "name": "symbol",
          "type": "string"
        }
      ],
      "name": "ERC721Created",
      "type": "event"
    },
    {
      "anonymous": false,
      "inputs": [
        {
          "indexed": true,
          "internalType": "address",
          "name": "previousOwner",
          "type": "address"
        },
        {
          "indexed": true,
          "internalType": "address",
          "name": "newOwner",
          "type": "address"
        }
      ],
      "name": "OwnershipTransferred",
      "type": "event"
    },
    {
      "inputs": [
        {
          "internalType": "string",
          "name": "name",
          "type": "string"
        },
        {
          "internalType": "string",
          "name": "symbol",
          "type": "string"
        },
        {
          "internalType": "uint256",
          "name": "supply",
          "type": "uint256"
        }
      ],
      "name": "createERC20",
      "outputs": [],
      "stateMutability": "payable",
      "type": "function"
    },
    {
      "inputs": [
        {
          "internalType": "string",
          "name": "name",
          "type": "string"
        },
        {
          "internalType": "string",
          "name": "symbol",
          "type": "string"
        }
      ],
      "name": "createERC721",
      "outputs": [],
      "stateMutability": "payable",
      "type": "function"
    },
    {
      "inputs": [],
      "name": "creationFee",
      "outputs": [
        {
          "internalType": "uint256",
          "name": "",
          "type": "uint256"
        }
      ],
      "stateMutability": "view",
      "type": "function"
    },
    {
      "inputs": [],
      "name": "owner",
      "outputs": [
        {
          "internalType": "address",
          "name": "",
          "type": "address"
        }
      ],
      "stateMutability": "view",
      "type": "function"
    },
    {
      "inputs": [],
      "name": "renounceOwnership",
      "outputs": [],
      "stateMutability": "nonpayable",
      "type": "function"
    },
    {
      "inputs": [
        {
          "internalType": "uint256",
          "name": "newFee",
          "type": "uint256"
        }
      ],
      "name": "setCreationFee",
      "outputs": [],
      "stateMutability": "nonpayable",
      "type": "function"
    },
    {
      "inputs": [
        {
          "internalType": "address",
          "name": "newOwner",
          "type": "address"
        }
      ],
      "name": "transferOwnership",
      "outputs": [],
      "stateMutability": "nonpayable",
      "type": "function"
    },
    {
      "inputs": [],
      "name": "withdraw",
      "outputs": [],
      "stateMutability": "nonpayable",
      "type": "function"
    }
  ],
  "bytecode": "0x6080604052662386f26fc1000060015534801561001b57600080fd5b506100253361002a565b61007a565b600080546001600160a01b038381166001600160a01b0319831681178455604051919092169283917f8be0079c531659141344cd1fd0a4f28419497f9722a3daafe3b4186f6b6457e09190a35050565b612d31806100896000396000f3fe608060405260043610620000855760003560e01c80638da5cb5b11620000545780638da5cb5b14620000ea578063b7d862251462000118578063dce0b4e4146200013d578063f2fde38b146200016457600080fd5b80633ccfd60b146200008a578063586fd0c514620000a4578063715018a614620000bb57806372e4352d14620000d3575b600080fd5b3480156200009757600080fd5b50620000a262000189565b005b620000a2620000b536600462000598565b620001d1565b348015620000c857600080fd5b50620000a2620002a9565b620000a2620000e436600462000603565b620002c1565b348015620000f757600080fd5b506000546040516001600160a01b0390911681526020015b60405180910390f35b3480156200012557600080fd5b50620000a26200013736600462000677565b6200039a565b3480156200014a57600080fd5b506200015560015481565b6040519081526020016200010f565b3480156200017157600080fd5b50620000a26200018336600462000691565b620003a9565b6200019362000425565b600080546040516001600160a01b03909116914780156108fc02929091818181858888f19350505050158015620001ce573d6000803e3d6000fd5b50565b6001543410156200021c5760405162461bcd60e51b815260206004820152601060248201526f496e73756666696369656e742066656560801b60448201526064015b60405180910390fd5b60008282336040516200022f90620004d1565b6200023d939291906200070b565b604051809103906000f0801580156200025a573d6000803e3d6000fd5b509050336001600160a01b03167fb24f60ab32cdb4340d30015b585a8dfabca5f3c8b22d74f7ff1dc96fddc5b0478285856040516200029c939291906200074d565b60405180910390a2505050565b620002b362000425565b620002bf600062000481565b565b600154341015620003085760405162461bcd60e51b815260206004820152601060248201526f496e73756666696369656e742066656560801b604482015260640162000213565b6000838333846040516200031c90620004df565b6200032b949392919062000791565b604051809103906000f08015801562000348573d6000803e3d6000fd5b509050336001600160a01b03167f2a162ef243c59e578e22aac89232a4ce68f4d02a78a5630a589dcb9d1ed3a82e828686866040516200038c9493929190620007d7565b60405180910390a250505050565b620003a462000425565b600155565b620003b362000425565b6001600160a01b0381166200041a5760405162461bcd60e51b815260206004820152602660248201527f4f776e61626c653a206e6577206f776e657220697320746865207a65726f206160448201526564647265737360d01b606482015260840162000213565b620001ce8162000481565b6000546001600160a01b03163314620002bf5760405162461bcd60e51b815260206004820181905260248201527f4f776e61626c653a2063616c6c6572206973206e6f7420746865206f776e6572604482015260640162000213565b600080546001600160a01b038381166001600160a01b0319831681178455604051919092169283917f8be0079c531659141344cd1fd0a4f28419497f9722a3daafe3b4186f6b6457e09190a35050565b611703806200082483390190565b610dd58062001f2783390190565b634e487b7160e01b600052604160045260246000fd5b600082601f8301126200051557600080fd5b813567ffffffffffffffff80821115620005335762000533620004ed565b604051601f8301601f19908116603f011681019082821181831017156200055e576200055e620004ed565b816040528381528660208588010111156200057857600080fd5b836020870160208301376000602085830101528094505050505092915050565b60008060408385031215620005ac57600080fd5b823567ffffffffffffffff80821115620005c557600080fd5b620005d38683870162000503565b93506020850135915080821115620005ea57600080fd5b50620005f98582860162000503565b9150509250929050565b6000806000606084860312156200061957600080fd5b833567ffffffffffffffff808211156200063257600080fd5b620006408783880162000503565b945060208601359150808211156200065757600080fd5b50620006668682870162000503565b925050604084013590509250925092565b6000602082840312156200068a57600080fd5b5035919050565b600060208284031215620006a457600080fd5b81356001600160a01b0381168114620006bc57600080fd5b9392505050565b6000815180845260005b81811015620006eb57602081850181015186830182015201620006cd565b506000602082860101526020601f19601f83011685010191505092915050565b606081526000620007206060830186620006c3565b8281036020840152620007348186620006c3565b91505060018060a01b0383166040830152949350505050565b6001600160a01b03841681526060602082018190526000906200077390830185620006c3565b8281036040840152620007878185620006c3565b9695505050505050565b608081526000620007a66080830187620006c3565b8281036020840152620007ba8187620006c3565b6001600160a01b0395909516604084015250506060015292915050565b6001600160a01b0385168152608060208201819052600090620007fd90830186620006c3565b8281036040840152620008118186620006c3565b9150508260608301529594505050505056fe60806040523480156200001157600080fd5b506040516200170338038062001703833981016040819052620000349162000145565b8282600062000044838262000261565b50600162000053828262000261565b5050600780546001600160a01b0319166001600160a01b039390931692909217909155506200032d915050565b634e487b7160e01b600052604160045260246000fd5b600082601f830112620000a857600080fd5b81516001600160401b0380821115620000c557620000c562000080565b604051601f8301601f19908116603f01168101908282118183101715620000f057620000f062000080565b816040528381526020925086838588010111156200010d57600080fd5b600091505b8382101562000131578582018301518183018401529082019062000112565b600093810190920192909252949350505050565b6000806000606084860312156200015b57600080fd5b83516001600160401b03808211156200017357600080fd5b620001818783880162000096565b945060208601519150808211156200019857600080fd5b50620001a78682870162000096565b604086015190935090506001600160a01b0381168114620001c757600080fd5b809150509250925092565b600181811c90821680620001e757607f821691505b6020821081036200020857634e487b7160e01b600052602260045260246000fd5b50919050565b601f8211156200025c57600081815260208120601f850160051c81016020861015620002375750805b601f850160051c820191505b81811015620002585782815560010162000243565b5050505b505050565b81516001600160401b038111156200027d576200027d62000080565b62000295816200028e8454620001d2565b846200020e565b602080601f831160018114620002cd5760008415620002b45750858301515b600019600386901b1c1916600185901b17855562000258565b600085815260208120601f198616915b82811015620002fe57888601518255948401946001909101908401620002dd565b50858210156200031d5787850151600019600388901b60f8161c191681555b5050505050600190811b01905550565b6113c6806200033d6000396000f3fe608060405234801561001057600080fd5b50600436106101005760003560e01c806370a0823111610097578063b88d4fde11610066578063b88d4fde14610213578063c87b56dd14610226578063e985e9c514610239578063f851a4401461027557600080fd5b806370a08231146101ce57806375794a3c146101ef57806395d89b41146101f8578063a22cb4651461020057600080fd5b806323b872dd116100d357806323b872dd1461018257806342842e0e146101955780636352211e146101a85780636a627842146101bb57600080fd5b806301ffc9a71461010557806306fdde031461012d578063081812fc14610142578063095ea7b31461016d575b600080fd5b610118610113366004610f2b565b610288565b60405190151581526020015b60405180910390f35b6101356102da565b6040516101249190610f98565b610155610150366004610fab565b61036c565b6040516001600160a01b039091168152602001610124565b61018061017b366004610fe0565b610393565b005b61018061019036600461100a565b6104ad565b6101806101a336600461100a565b6104de565b6101556101b6366004610fab565b6104f9565b6101806101c9366004611046565b610559565b6101e16101dc366004611046565b6105cd565b604051908152602001610124565b6101e160065481565b610135610653565b61018061020e366004611061565b610662565b6101806102213660046110b3565b610671565b610135610234366004610fab565b6106a9565b61011861024736600461118f565b6001600160a01b03918216600090815260056020908152604080832093909416825291909152205460ff1690565b600754610155906001600160a01b031681565b60006001600160e01b031982166380ac58cd60e01b14806102b957506001600160e01b03198216635b5e139f60e01b145b806102d457506301ffc9a760e01b6001600160e01b03198316145b92915050565b6060600080546102e9906111c2565b80601f0160208091040260200160405190810160405280929190818152602001828054610315906111c2565b80156103625780601f1061033757610100808354040283529160200191610362565b820191906000526020600020905b81548152906001019060200180831161034557829003601f168201915b5050505050905090565b60006103778261071d565b506000908152600460205260409020546001600160a01b031690565b600061039e826104f9565b9050806001600160a01b0316836001600160a01b0316036104105760405162461bcd60e51b815260206004820152602160248201527f4552433732313a20617070726f76616c20746f2063757272656e74206f776e656044820152603960f91b60648201526084015b60405180910390fd5b336001600160a01b038216148061042c575061042c8133610247565b61049e5760405162461bcd60e51b815260206004820152603d60248201527f4552433732313a20617070726f76652063616c6c6572206973206e6f7420746f60448201527f6b656e206f776e6572206f7220617070726f76656420666f7220616c6c0000006064820152608401610407565b6104a8838361077f565b505050565b6104b733826107ed565b6104d35760405162461bcd60e51b8152600401610407906111fc565b6104a883838361086c565b6104a883838360405180602001604052806000815250610671565b6000818152600260205260408120546001600160a01b0316806102d45760405162461bcd60e51b8152602060048201526018602482015277115490cdcc8c4e881a5b9d985b1a59081d1bdad95b88125160421b6044820152606401610407565b6007546001600160a01b031633146105a95760405162461bcd60e51b815260206004820152601360248201527213db9b1e4818591b5a5b8818d85b881b5a5b9d606a1b6044820152606401610407565b6105b5816006546109d0565b600680549060006105c583611249565b919050555050565b60006001600160a01b0382166106375760405162461bcd60e51b815260206004820152602960248201527f4552433732313a2061646472657373207a65726f206973206e6f7420612076616044820152683634b21037bbb732b960b91b6064820152608401610407565b506001600160a01b031660009081526003602052604090205490565b6060600180546102e9906111c2565b61066d3383836109ea565b5050565b61067b33836107ed565b6106975760405162461bcd60e51b8152600401610407906111fc565b6106a384848484610ab8565b50505050565b60606106b48261071d565b60006106cb60408051602081019091526000815290565b905060008151116106eb5760405180602001604052806000815250610716565b806106f584610aeb565b604051602001610706929190611270565b6040516020818303038152906040525b9392505050565b6000818152600260205260409020546001600160a01b031661077c5760405162461bcd60e51b8152602060048201526018602482015277115490cdcc8c4e881a5b9d985b1a59081d1bdad95b88125160421b6044820152606401610407565b50565b600081815260046020526040902080546001600160a01b0319166001600160a01b03841690811790915581906107b4826104f9565b6001600160a01b03167f8c5be1e5ebec7d5bd14f71427d1e84f3dd0314c0f7b2291e5b200ac8c7c3b92560405160405180910390a45050565b6000806107f9836104f9565b9050806001600160a01b0316846001600160a01b0316148061084057506001600160a01b0380821660009081526005602090815260408083209388168352929052205460ff165b806108645750836001600160a01b03166108598461036c565b6001600160a01b0316145b949350505050565b826001600160a01b031661087f826104f9565b6001600160a01b0316146108a55760405162461bcd60e51b81526004016104079061129f565b6001600160a01b0382166109075760405162461bcd60e51b8152602060048201526024808201527f4552433732313a207472616e7366657220746f20746865207a65726f206164646044820152637265737360e01b6064820152608401610407565b826001600160a01b031661091a826104f9565b6001600160a01b0316146109405760405162461bcd60e51b81526004016104079061129f565b600081815260046020908152604080832080546001600160a01b03199081169091556001600160a01b0387811680865260038552838620805460001901905590871680865283862080546001019055868652600290945282852080549092168417909155905184937fddf252ad1be2c89b69c2b068fc378daa952ba7f163c4a11628f55a4df523b3ef91a4505050565b61066d828260405180602001604052806000815250610b7e565b816001600160a01b0316836001600160a01b031603610a4b5760405162461bcd60e51b815260206004820152601960248201527f4552433732313a20617070726f766520746f2063616c6c6572000000000000006044820152606401610407565b6001600160a01b03838116600081815260056020908152604080832094871680845294825291829020805460ff191686151590811790915591519182527f17307eab39ab6107e8899845ad3d59bd9653f200f220920489ca2b5937696c31910160405180910390a3505050565b610ac384848461086c565b610acf84848484610bb1565b6106a35760405162461bcd60e51b8152600401610407906112e4565b60606000610af883610cb2565b600101905060008167ffffffffffffffff811115610b1857610b1861109d565b6040519080825280601f01601f191660200182016040528015610b42576020820181803683370190505b5090508181016020015b600019016f181899199a1a9b1b9c1cb0b131b232b360811b600a86061a8153600a8504945084610b4c57509392505050565b610b888383610d8a565b610b956000848484610bb1565b6104a85760405162461bcd60e51b8152600401610407906112e4565b60006001600160a01b0384163b15610ca757604051630a85bd0160e11b81526001600160a01b0385169063150b7a0290610bf5903390899088908890600401611336565b6020604051808303816000875af1925050508015610c30575060408051601f3d908101601f19168201909252610c2d91810190611373565b60015b610c8d573d808015610c5e576040519150601f19603f3d011682016040523d82523d6000602084013e610c63565b606091505b508051600003610c855760405162461bcd60e51b8152600401610407906112e4565b805181602001fd5b6001600160e01b031916630a85bd0160e11b149050610864565b506001949350505050565b60008072184f03e93ff9f4daa797ed6e38ed64bf6a1f0160401b8310610cf15772184f03e93ff9f4daa797ed6e38ed64bf6a1f0160401b830492506040015b6d04ee2d6d415b85acef81000000008310610d1d576d04ee2d6d415b85acef8100000000830492506020015b662386f26fc100008310610d3b57662386f26fc10000830492506010015b6305f5e1008310610d53576305f5e100830492506008015b6127108310610d6757612710830492506004015b60648310610d79576064830492506002015b600a83106102d45760010192915050565b6001600160a01b038216610de05760405162461bcd60e51b815260206004820181905260248201527f4552433732313a206d696e7420746f20746865207a65726f20616464726573736044820152606401610407565b6000818152600260205260409020546001600160a01b031615610e455760405162461bcd60e51b815260206004820152601c60248201527f4552433732313a20746f6b656e20616c7265616479206d696e746564000000006044820152606401610407565b6000818152600260205260409020546001600160a01b031615610eaa5760405162461bcd60e51b815260206004820152601c60248201527f4552433732313a20746f6b656e20616c7265616479206d696e746564000000006044820152606401610407565b6001600160a01b038216600081815260036020908152604080832080546001019055848352600290915280822080546001600160a01b0319168417905551839291907fddf252ad1be2c89b69c2b068fc378daa952ba7f163c4a11628f55a4df523b3ef908290a45050565b6001600160e01b03198116811461077c57600080fd5b600060208284031215610f3d57600080fd5b813561071681610f15565b60005b83811015610f63578181015183820152602001610f4b565b50506000910152565b60008151808452610f84816020860160208601610f48565b601f01601f19169290920160200192915050565b6020815260006107166020830184610f6c565b600060208284031215610fbd57600080fd5b5035919050565b80356001600160a01b0381168114610fdb57600080fd5b919050565b60008060408385031215610ff357600080fd5b610ffc83610fc4565b946020939093013593505050565b60008060006060848603121561101f57600080fd5b61102884610fc4565b925061103660208501610fc4565b9150604084013590509250925092565b60006020828403121561105857600080fd5b61071682610fc4565b6000806040838503121561107457600080fd5b61107d83610fc4565b91506020830135801515811461109257600080fd5b809150509250929050565b634e487b7160e01b600052604160045260246000fd5b600080600080608085870312156110c957600080fd5b6110d285610fc4565b93506110e060208601610fc4565b925060408501359150606085013567ffffffffffffffff8082111561110457600080fd5b818701915087601f83011261111857600080fd5b81358181111561112a5761112a61109d565b604051601f8201601f19908116603f011681019083821181831017156111525761115261109d565b816040528281528a602084870101111561116b57600080fd5b82602086016020830137600060208483010152809550505050505092959194509250565b600080604083850312156111a257600080fd5b6111ab83610fc4565b91506111b960208401610fc4565b90509250929050565b600181811c908216806111d657607f821691505b6020821081036111f657634e487b7160e01b600052602260045260246000fd5b50919050565b6020808252602d908201527f4552433732313a2063616c6c6572206973206e6f7420746f6b656e206f776e6560408201526c1c881bdc88185c1c1c9bdd9959609a1b606082015260800190565b60006001820161126957634e487b7160e01b600052601160045260246000fd5b5060010190565b60008351611282818460208801610f48565b835190830190611296818360208801610f48565b01949350505050565b60208082526025908201527f4552433732313a207472616e736665722066726f6d20696e636f72726563742060408201526437bbb732b960d91b606082015260800190565b60208082526032908201527f4552433732313a207472616e7366657220746f206e6f6e20455243373231526560408201527131b2b4bb32b91034b6b83632b6b2b73a32b960711b606082015260800190565b6001600160a01b038581168252841660208201526040810183905260806060820181905260009061136990830184610f6c565b9695505050505050565b60006020828403121561138557600080fd5b815161071681610f1556fea2646970667358221220cb47cb22933099ed36a606747cf32385244360ba08d8dceb864a6bb05150bc2464736f6c6343000811003360806040523480156200001157600080fd5b5060405162000dd538038062000dd5833981016040819052620000349162000229565b838360036200004483826200034a565b5060046200005382826200034a565b5050506200008a826200006b6200009460201b60201c565b6200007890600a6200052b565b62000084908462000543565b62000099565b5050505062000573565b601290565b6001600160a01b038216620000f45760405162461bcd60e51b815260206004820152601f60248201527f45524332303a206d696e7420746f20746865207a65726f206164647265737300604482015260640160405180910390fd5b80600260008282546200010891906200055d565b90915550506001600160a01b038216600081815260208181526040808320805486019055518481527fddf252ad1be2c89b69c2b068fc378daa952ba7f163c4a11628f55a4df523b3ef910160405180910390a35050565b505050565b634e487b7160e01b600052604160045260246000fd5b600082601f8301126200018c57600080fd5b81516001600160401b0380821115620001a957620001a962000164565b604051601f8301601f19908116603f01168101908282118183101715620001d457620001d462000164565b81604052838152602092508683858801011115620001f157600080fd5b600091505b83821015620002155785820183015181830184015290820190620001f6565b600093810190920192909252949350505050565b600080600080608085870312156200024057600080fd5b84516001600160401b03808211156200025857600080fd5b62000266888389016200017a565b955060208701519150808211156200027d57600080fd5b506200028c878288016200017a565b604087015190945090506001600160a01b0381168114620002ac57600080fd5b6060959095015193969295505050565b600181811c90821680620002d157607f821691505b602082108103620002f257634e487b7160e01b600052602260045260246000fd5b50919050565b601f8211156200015f57600081815260208120601f850160051c81016020861015620003215750805b601f850160051c820191505b8181101562000342578281556001016200032d565b505050505050565b81516001600160401b0381111562000366576200036662000164565b6200037e81620003778454620002bc565b84620002f8565b602080601f831160018114620003b657600084156200039d5750858301515b600019600386901b1c1916600185901b17855562000342565b600085815260208120601f198616915b82811015620003e757888601518255948401946001909101908401620003c6565b5085821015620004065787850151600019600388901b60f8161c191681555b5050505050600190811b01905550565b634e487b7160e01b600052601160045260246000fd5b600181815b808511156200046d57816000190482111562000451576200045162000416565b808516156200045f57918102915b93841c939080029062000431565b509250929050565b600082620004865750600162000525565b81620004955750600062000525565b8160018114620004ae5760028114620004b957620004d9565b600191505062000525565b60ff841115620004cd57620004cd62000416565b50506001821b62000525565b5060208310610133831016604e8410600b8410161715620004fe575081810a62000525565b6200050a83836200042c565b806000190482111562000521576200052162000416565b0290505b92915050565b60006200053c60ff84168362000475565b9392505050565b808202811582820484141762000525576200052562000416565b8082018082111562000525576200052562000416565b61085280620005836000396000f3fe608060405234801561001057600080fd5b50600436106100a95760003560e01c80633950935111610071578063395093511461012357806370a082311461013657806395d89b411461015f578063a457c2d714610167578063a9059cbb1461017a578063dd62ed3e1461018d57600080fd5b806306fdde03146100ae578063095ea7b3146100cc57806318160ddd146100ef57806323b872dd14610101578063313ce56714610114575b600080fd5b6100b66101a0565b6040516100c3919061069c565b60405180910390f35b6100df6100da366004610706565b610232565b60405190151581526020016100c3565b6002545b6040519081526020016100c3565b6100df61010f366004610730565b61024c565b604051601281526020016100c3565b6100df610131366004610706565b610270565b6100f361014436600461076c565b6001600160a01b031660009081526020819052604090205490565b6100b6610292565b6100df610175366004610706565b6102a1565b6100df610188366004610706565b610321565b6100f361019b36600461078e565b61032f565b6060600380546101af906107c1565b80601f01602080910402602001604051908101604052809291908181526020018280546101db906107c1565b80156102285780601f106101fd57610100808354040283529160200191610228565b820191906000526020600020905b81548152906001019060200180831161020b57829003601f168201915b5050505050905090565b60003361024081858561035a565b60019150505b92915050565b60003361025a85828561047e565b6102658585856104f8565b506001949350505050565b600033610240818585610283838361032f565b61028d91906107fb565b61035a565b6060600480546101af906107c1565b600033816102af828661032f565b9050838110156103145760405162461bcd60e51b815260206004820152602560248201527f45524332303a2064656372656173656420616c6c6f77616e63652062656c6f77604482015264207a65726f60d81b60648201526084015b60405180910390fd5b610265828686840361035a565b6000336102408185856104f8565b6001600160a01b03918216600090815260016020908152604080832093909416825291909152205490565b6001600160a01b0383166103bc5760405162461bcd60e51b8152602060048201526024808201527f45524332303a20617070726f76652066726f6d20746865207a65726f206164646044820152637265737360e01b606482015260840161030b565b6001600160a01b03821661041d5760405162461bcd60e51b815260206004820152602260248201527f45524332303a20617070726f766520746f20746865207a65726f206164647265604482015261737360f01b606482015260840161030b565b6001600160a01b0383811660008181526001602090815260408083209487168084529482529182902085905590518481527f8c5be1e5ebec7d5bd14f71427d1e84f3dd0314c0f7b2291e5b200ac8c7c3b925910160405180910390a3505050565b600061048a848461032f565b905060001981146104f257818110156104e55760405162461bcd60e51b815260206004820152601d60248201527f45524332303a20696e73756666696369656e7420616c6c6f77616e6365000000604482015260640161030b565b6104f2848484840361035a565b50505050565b6001600160a01b03831661055c5760405162461bcd60e51b815260206004820152602560248201527f45524332303a207472616e736665722066726f6d20746865207a65726f206164604482015264647265737360d81b606482015260840161030b565b6001600160a01b0382166105be5760405162461bcd60e51b815260206004820152602360248201527f45524332303a207472616e7366657220746f20746865207a65726f206164647260448201526265737360e81b606482015260840161030b565b6001600160a01b038316600090815260208190526040902054818110156106365760405162461bcd60e51b815260206004820152602660248201527f45524332303a207472616e7366657220616d6f756e7420657863656564732062604482015265616c616e636560d01b606482015260840161030b565b6001600160a01b03848116600081815260208181526040808320878703905593871680835291849020805487019055925185815290927fddf252ad1be2c89b69c2b068fc378daa952ba7f163c4a11628f55a4df523b3ef910160405180910390a36104f2565b600060208083528351808285015260005b818110156106c9578581018301518582016040015282016106ad565b506000604082860101526040601f19601f8301168501019250505092915050565b80356001600160a01b038116811461070157600080fd5b919050565b6000806040838503121561071957600080fd5b610722836106ea565b946020939093013593505050565b60008060006060848603121561074557600080fd5b61074e846106ea565b925061075c602085016106ea565b9150604084013590509250925092565b60006020828403121561077e57600080fd5b610787826106ea565b9392505050565b600080604083850312156107a157600080fd5b6107aa836106ea565b91506107b8602084016106ea565b90509250929050565b600181811c908216806107d557607f821691505b6020821081036107f557634e487b7160e01b600052602260045260246000fd5b50919050565b8082018082111561024657634e487b7160e01b600052601160045260246000fdfea2646970667358221220a5e821f3be3af8d021b4f858764afa8c01189ebe326d8ad282dcfa7ef29fed8a64736f6c63430008110033a2646970667358221220fcd19a25e6a8efcc403d36b03ce6486daa0ae0cefd258e88cf6b4fdc28275b2164736f6c63430008110033",
  "linkReferences": {},
  "deployedLinkReferences": {}
}